:1000000012C02CC02BC02AC029C028C027C026C0BF
:1000100025C024C023C022C021C020C01FC01EC0D4
:100020001DC01CC01BC011241FBECFE5D4E0DEBF25
:10003000CDBF10E0A0E6B0E0E2EAF2E002C0059039
:100040000D92A236B107D9F720E0A2E6B0E001C0D8
:100050001D92A436B207E1F7ECD021C1D1CFA29A0C
:10006000A39AA49AA59A889A899A8A9A8B9A8C9A22
:100070008D9A8E9A8F9AAA98AB98AC98AD989098D2
:10008000919892989398949895989698979808959F
:10009000811107C0AA9AAB9AAC9AAD9A909A919A9C
:1000A0002DC0813011F4AA9824C0823031F4AA9A6C
:1000B000AB9AAC98AD9A909A07C0833039F4AA9A5B
:1000C000AB9AAC9AAD9A9098919831C0843021F453
:1000D000AA98AB9AAC9A28C0853019F4AA9AAB9822
:1000E0001BC0863019F4AA9AAB980EC0873041F431
:1000F000AA9AAB9AAC9AAD9890989198929818C099
:10010000883031F4AA9AAB9AAC9AAD9A909A0EC004
:10011000893029F4AA9AAB9AAC9AAD9A06C08F3668
:1001200041F4AA9AAB9AAC98AD989098919A929A09
:100130009398089590936100809360000895EF92E2
:10014000FF920F931F93CF93DF9380916200909162
:100150006300019690936300809362008091620037
:1001600090916300049721F4109263001092620052
:10017000C0916000D0916100009160001091610019
:10018000E0906000F09061008091600090916100CB
:100190002091620030916300232B49F4949A959842
:1001A0009698979868EE73E053D0862F71DF809110
:1001B000620090916300019769F49498959A9698DB
:1001C0009798C70168EE73E043D064E670E040D0D2
:1001D000862F5EDF8091620090916300029769F440
:1001E00094989598969A9798C80164E670E030D0F4
:1001F0006AE070E02DD0862F4BDF809162009091F5
:100200006300039779F4949895989698979ACE01FD
:100210006AE070E01DD0DF91CF911F910F91FF90A8
:10022000EF9036CFDF91CF911F910F91FF90EF901C
:100230000895C0E0D0E021968FE19EE40197F1F7A8
:1002400000C000007CDFD0936100C0936000F3CF5A
:1002500097FB072E16F4009406D077FD08D00BD03C
:1002600007FC05D03EF4909581959F4F08957095B9
:1002700061957F4F0895AA1BBB1B51E107C0AA1FC0
:10028000BB1FA617B70710F0A61BB70B881F991F37
:100290005A95A9F780959095BC01CD010895F894E1
:0202A000FFCF8E
:0202A200010059
:00000001FF
